{
  "_format": "hh-sol-artifact-1",
  "contractName": "TokenPurchase",
  "sourceName": "contracts/BuyToken20.sol",
  "abi": [
    {
      "inputs": [
        {
          "internalType": "address",
          "name": "_tokenAddress",
          "type": "address"
        },
        {
          "internalType": "address",
          "name": "_seller",
          "type": "address"
        },
        {
          "internalType": "uint256",
          "name": "_price",
          "type": "uint256"
        }
      ],
      "stateMutability": "nonpayable",
      "type": "constructor"
    },
    {
      "anonymous": false,
      "inputs": [
        {
          "indexed": false,
          "internalType": "address",
          "name": "buyer",
          "type": "address"
        },
        {
          "indexed": false,
          "internalType": "uint256",
          "name": "amount",
          "type": "uint256"
        }
      ],
      "name": "TokensPurchased",
      "type": "event"
    },
    {
      "inputs": [
        {
          "internalType": "uint256",
          "name": "tokenAmount",
          "type": "uint256"
        }
      ],
      "name": "buyTokens",
      "outputs": [],
      "stateMutability": "payable",
      "type": "function"
    },
    {
      "inputs": [],
      "name": "price",
      "outputs": [
        {
          "internalType": "uint256",
          "name": "",
          "type": "uint256"
        }
      ],
      "stateMutability": "view",
      "type": "function"
    },
    {
      "inputs": [],
      "name": "seller",
      "outputs": [
        {
          "internalType": "address",
          "name": "",
          "type": "address"
        }
      ],
      "stateMutability": "view",
      "type": "function"
    },
    {
      "inputs": [],
      "name": "tokenAddress",
      "outputs": [
        {
          "internalType": "address",
          "name": "",
          "type": "address"
        }
      ],
      "stateMutability": "view",
      "type": "function"
    }
  ],
  "bytecode": "0x608060405234801561001057600080fd5b506040516108603803806108608339818101604052810190610032919061015b565b826000806101000a81548173ffffffffffffffffffffffffffffffffffffffff021916908373ffffffffffffffffffffffffffffffffffffffff16021790555081600160006101000a81548173ffffffffffffffffffffffffffffffffffffffff021916908373ffffffffffffffffffffffffffffffffffffffff160217905550806002819055505050506101ae565b600080fd5b600073ffffffffffffffffffffffffffffffffffffffff82169050919050565b60006100f2826100c7565b9050919050565b610102816100e7565b811461010d57600080fd5b50565b60008151905061011f816100f9565b92915050565b6000819050919050565b61013881610125565b811461014357600080fd5b50565b6000815190506101558161012f565b92915050565b600080600060608486031215610174576101736100c2565b5b600061018286828701610110565b935050602061019386828701610110565b92505060406101a486828701610146565b9150509250925092565b6106a3806101bd6000396000f3fe60806040526004361061003f5760003560e01c806308551a53146100445780633610724e1461006f5780639d76ea581461008b578063a035b1fe146100b6575b600080fd5b34801561005057600080fd5b506100596100e1565b604051610066919061036d565b60405180910390f35b610089600480360381019061008491906103c3565b610107565b005b34801561009757600080fd5b506100a0610302565b6040516100ad919061036d565b60405180910390f35b3480156100c257600080fd5b506100cb610326565b6040516100d891906103ff565b60405180910390f35b600160009054906101000a900473ffffffffffffffffffffffffffffffffffffffff1681565b60008060009054906101000a900473ffffffffffffffffffffffffffffffffffffffff16905060008260025461013d9190610449565b905080341015610182576040517f08c379a0000000000000000000000000000000000000000000000000000000008152600401610179906104e8565b60405180910390fd5b8173ffffffffffffffffffffffffffffffffffffffff166323b872dd600160009054906101000a900473ffffffffffffffffffffffffffffffffffffffff1633866040518463ffffffff1660e01b81526004016101e193929190610508565b6020604051808303816000875af1158015610200573d6000803e3d6000fd5b505050506040513d601f19601f820116820180604052508101906102249190610577565b610263576040517f08c379a000000000000000000000000000000000000000000000000000000000815260040161025a906105f0565b60405180910390fd5b803411156102c457600081346102799190610610565b90503373ffffffffffffffffffffffffffffffffffffffff166108fc829081150290604051600060405180830381858888f193505050501580156102c1573d6000803e3d6000fd5b50505b7f8f28852646c20cc973d3a8218f7eefed58c25c909f78f0265af4818c3d4dc27133846040516102f5929190610644565b60405180910390a1505050565b60008054906101000a900473ffffffffffffffffffffffffffffffffffffffff1681565b60025481565b600073ffffffffffffffffffffffffffffffffffffffff82169050919050565b60006103578261032c565b9050919050565b6103678161034c565b82525050565b6000602082019050610382600083018461035e565b92915050565b600080fd5b6000819050919050565b6103a08161038d565b81146103ab57600080fd5b50565b6000813590506103bd81610397565b92915050565b6000602082840312156103d9576103d8610388565b5b60006103e7848285016103ae565b91505092915050565b6103f98161038d565b82525050565b600060208201905061041460008301846103f0565b92915050565b7f4e487b7100000000000000000000000000000000000000000000000000000000600052601160045260246000fd5b60006104548261038d565b915061045f8361038d565b925082820261046d8161038d565b915082820484148315176104845761048361041a565b5b5092915050565b600082825260208201905092915050565b7f496e73756666696369656e74207061796d656e74000000000000000000000000600082015250565b60006104d260148361048b565b91506104dd8261049c565b602082019050919050565b60006020820190508181036000830152610501816104c5565b9050919050565b600060608201905061051d600083018661035e565b61052a602083018561035e565b61053760408301846103f0565b949350505050565b60008115159050919050565b6105548161053f565b811461055f57600080fd5b50565b6000815190506105718161054b565b92915050565b60006020828403121561058d5761058c610388565b5b600061059b84828501610562565b91505092915050565b7f546f6b656e207472616e73666572206661696c65640000000000000000000000600082015250565b60006105da60158361048b565b91506105e5826105a4565b602082019050919050565b60006020820190508181036000830152610609816105cd565b9050919050565b600061061b8261038d565b91506106268361038d565b925082820390508181111561063e5761063d61041a565b5b92915050565b6000604082019050610659600083018561035e565b61066660208301846103f0565b939250505056fea2646970667358221220e97cbca6976c1b3f09c7de0334b890745a3d2c5d1c69ad7ab7bb8dca442f783764736f6c63430008120033",
  "linkReferences": {},
  "deployedLinkReferences": {}
}